:10000000020033E55F602C0240030002400B000059
:10001000000000E55F601C0240130002401B00006E
:10002000000000024023000000000002402B0000FE
:1000300000000075B0FF30B3FA11F6758168020157
:1000400050757F0312060AE51460030200B4120A19
:1000500073100253100130752702120CF5120A7347
:10006000100244100121157FE57FB40208752704B2
:10007000120CF580CF752AFF752BFEE57F602812E4
:1000800000CA120F0380C77527087528FF7529FE5F
:10009000120CF5120A7320020E3001CA120CF5126E
:1000A0000A7320020280BF752780120CF512070424
:1000B000E55F700F11E175132911CA11F675A88457
:1000C00002035411CA11F602400075280075290078
:1000D000752708120CF52279FF74FF1470FDD9F909
:1000E00022E514540FF89080527480F011D77400F8
:1000F000F011D7D8F12232754302754401754504D9
:10010000754902754A67754B11755C4485435D15E9
:100110005D7546007547A375485C74FFF590E590E2
:1001200054E0F52E7562807400B52E0302013A2466
:1001300020F8E56203F562E880EF227400908059B0
:10014000F090805BF090805DF07403908054F0221A
:100150009020007402F075A00074FF787FF6D8FD3F
:10016000787F86F0B5F009D8F970020141E480EBA0
:1001700075143175A000014175A08090022EE493A2
:10018000A36007F8E493F2A380F4900256E493602E
:100190000DA3F8E2F5F0E493B5F007A380EFE402D5
:1001A00001A9E514700375143375A0003278037942
:1001B000007AFF7B007C5F8CA0E6F3D9FC1CBC3F7F
:1001C000F67C5F8CA086F0E3B5F00CD9F81CBC3F40
:1001D000F2D8E2E40201DEE514700375143475A070
:1001E000002290807075A08078047A007BFF7C00EC
:1001F0007D0079537410F3795DEDF319EAF3E6F0BD
:10020000DAFA0DBD04F17D00795DEDF319EAF386AC
:10021000F0E0B5F00EDAF60DBD04ED18B801D1E44A
:1002200002022AE514700375143575A0002271E0EE
:1002300071C074C27520768277207B107CA17D0707
:100240007E007F07B740C908CAA0A40559FF59001E
:10025000520053005403E000C000A0128001E100EE
:10026000C100A1128102E200C200A2128203E300D7
:10027000C300A310830CE46CC400A405840DE50046
:10028000C503A520850FE6A1C680A6028607E7FE66
:10029000C700A7028700E800C800A8008817E90087
:1002A000C908A980890AEAA1CAA0AA028A0BEBF8A8
:1002B000CB00AB028B04EC00CC43AC008C94ED0083
:1002C000CD43AD008D94EE00CE0BAE808E06EF00D8
:1002D000CF01AF408F06F04ED000B080900EF100FD
:1002E000D105B1009109F200D201B2009210F300E1
:1002F000D301B3009316F400D403B400941FF500A7
:10030000D500B50095D5F64ED600B6009656F70046
:10031000D701B740970A00900000780079007A0270
:100320007B00E493A328F8E439F90AEA70F40BBBE4
:1003300010F088318932227117E4900FFE93C3B513
:10034000310C900FFFE493B53204E40203537514AB
:100350003274FF22755F0012036D758168908052C0
:10036000E030E4F91204023029F30203B812039FCB
:100370009080537400F0908052F090807EE054F8AA
:10038000F09080507400F01204B622908052E05435
:10039000F34404F022908052E054F34408F0229099
:1003A0008052E054F3F02290807EE054F84406F04E
:1003B0007E007F001203F02290807EE054F8440219
:1003C000F07E057F001203F012045F1203D10204D5
:1003D00077E537B4030375371C741DB5370612046F
:1003E000AB020562741CB5370302062A751320227E
:1003F0001204B690805CEFF02EF5217522001204F5
:10040000FA22908052E0FD20E545718B908050E00B
:10041000FA719FE5625A6037E562F45AF563780035
:100420007908C33350010819B900F7E8600418E8E7
:10043000701D752502908053E04480F0908052E05A
:100440004480F090807EE030E30271A702045253B2
:1004500025FD22C3206107751304751402D32212EF
:1004600004B6780C7937908070E0F70990805AE0F4
:1004700004F018E870F022E5136006751202020419
:1004800084751200754E0012048F1204D461541248
:1004900004B6908070E512F090807EE054F844033A
:1004A000F07521007522001205042274007813797A
:1004B00009F608D9FC22908053E054C0F09080598E
:1004C0007400F090805AF090805BF090805CF09027
:1004D000805DF02291B6908070E54EF091B69080EC
:1004E0007EE04407F0752100752200120504C32246
:1004F00090807EE054F84401F02212050E1205446B
:1005000012055A2212052912054412055A2290801A
:1005100053E054EFF090805EE521F090805FE5229B
:10052000F0908053E04404F022908053E04410F0B7
:10053000E52190805EF0E52290805FF0908053E0AE
:100540004408F022908053E0542060F879FF00D9ED
:10055000FD908053E0542060EB22908053E054C023
:10056000F022E53C6003020605E538B40417754E39
:1005700000751200918F91D4716D855F7F12060A0C
:10058000857F5F6154E53B70030206089153500379
:1005900002060814FE7F0090807EE054F8F071F0AF
:1005A00091B6908070E0605DFFB401061209D3023D
:1005B0000608B40A0811CA120F03020608B4060599
:1005C000E55F604122B403030205CEB40437908096
:1005D0005A7401F0908070E0F51790805A7402F020
:1005E000908070E0F51890805A7403F0908070E06D
:1005F000F519EFB403061206B0020608B404067536
:100600001B0102060875132481777137317831ADEB
:1006100031E211F7313B752701120CF5E514700634
:1006200020610675143675132922E53C543F60039A
:100630000206ABE51B600DB4020122751B00753B81
:1006400001020666781391B67A04E6908070F09005
:10065000805CE004F090805AE004F0081AEA70EA46
:1006600075560302069D915340447528FFE519F520
:1006700029752708120CF5E518F54C120B47E517FC
:10068000FCE519FD120772E51370237556FF91B64C
:1006900091F0855621752200B1040206AE91B69103
:1006A000F0855621752200B104818175132481776C
:1006B0007EFF7F0071F07528FFE519F52975270881
:1006C000120CF5E518F54C120B47E519FDE517FC82
:1006D000120872E513702BE529B4FE0BE54C04F506
:1006E0004CB404E3020702E54CB40005754C0180EC
:1006F000D6E54CB4020CE517C394104005754C03C5
:1007000080C581777528FF7529FE752708120CF5BD
:100710007534407C00ECF54D754C007DFE7F081271
:100720000B47120772E5136019120B4D1FEF603B68
:10073000751300756000054CE54CB404E2754C007F
:1007400080DD12081CE513701C754C000CECF54D97
:10075000BC20CA905DF7E0B4020BA3E0B467067555
:100760005FF002077175143902076E751438755FF2
:10077000002291B6ED9080E0F0E54C9080E1F0EC45
:100780009080E2F0740090807AF0908053E0441002
:10079000F074FF9080C4F07400F558F565F567F5C6
:1007A00068F523F5607408908078F074059080797E
:1007B000F00523E523B4FF260565E565B4201F1287
:1007C0000B4D70E1E5580558B4080302080CF528F4
:1007D000752710120CF5120B4775600080C79080CA
:1007E00079E020E50530E4C980C17523081523E5CB
:1007F0002360CC908079E030E6F39080787414F038
:10080000908079E030E4F930E20580B37513297502
:1008100027107528FF120CF5752700221204B690D8
:100820008070E0B46C0675132902084C8534A078FA
:1008300000908070E0F2B8FF030208480890805AE8
:10084000E8F090805CF080E905347800221204B66C
:100850008534A0A836908070E2F0B8FF0302086CDF
:100860000890805AE8F090805CF080E90534753695
:1008700000221204B67400F567F568F56590807A79
:10088000E07400F09080C474FFF09080E0EDF09090
:1008900080E1E54CF09080E2ECF09080E37400F0B1
:1008A0007400F565F523F560F568F56774099080C7
:1008B00078F07405908079F00523E523B4FF0A05EC
:1008C00065E565B410030208E0908079E020E51B3F
:1008D00030E4E543680130E2D90567E567B420D22A
:1008E000120B4D70C77513290209087523081523CB
:1008F000E52360EC908079E030E6F3741490807822
:10090000F0908079E030E4F9227528FF7529FF75B1
:100910002708120CF5AC2E7DFF7F14120B4712072F
:1009200072E513602B120B4D1FEF603575130075C8
:100930006000E54C7004054C80E1B40105754C0085
:1009400080D9B40204054C80D2754C0280CD80CB96
:10095000111CE513700B0CECB532BE755FF102098A
:10096000611200CA2285131B85141A7513007514B1
:10097000007528FF7529FE752708120CF5AC2E7539
:100980004C007DFE7F14120B47120772E5136019AD
:10099000120B4D1FEF6023751300756000054CE5C9
:1009A0004CB404E2754C0080DD111CE513700B0C97
:1009B000ECB532D0755FF00209C6851B13851A1499
:1009C000751B290209CF851B13851A14751B00128C
:1009D00000CA221200CA1204B67528FF7529FF75D5
:1009E0002708120CF5306117754C00120A03054CEC
:1009F000E54CB404F61529E529B4FDE3020A0275B5
:100A0000130422120B477C00120A5B9080D0740CF6
:100A1000F074FF9080C4F09080787410F090807A29
:100A20007420F09080797415F0E030E5FC908078C7
:100A30007411F0908079E030E6FC0CECB4200E905C
:100A400080787413F0908079E030E4FC22120A5B25
:100A50009080787412F090807980CE9080E0E529C3
:100A6000F09080E1E54CF09080E2ECF09080E3744F
:100A700000F022754C00120B4D1204B65320F89072
:100A80008053E04410F0120B4774FE9080E0F0E5D4
:100A90004C9080E1F074009080E2F09080E3F0747C
:100AA0000090807AF074FF9080C4F0752200756524
:100AB000007408908078F07405908079F0E020E56B
:100AC00073F5230522E522B4FF0D0565E565B4083D
:100AD00006120B4D020AE2E52330E4E120E2D202E5
:100AE0000AF0054CE54C756500B4048A5320FD22DC
:100AF00090807FE0F543E0F555E0F554E0F553B420
:100B0000FE0280ADB4FF0C752AFF752BFF43200257
:100B1000020B40120B80C3E5289402400A70C3E523
:100B2000299466400270BBC385282A85292B43205F
:100B300002020B40432004752AFF752BFE120B4D59
:100B40007528FF7529FE22E54CF4F59022908079F6
:100B5000741FF0F07400F565F567908079E030E47B
:100B6000FC740090805AF090805BF090805CF09074
:100B7000805DF00560E560B40103020B7F74002224
:100B8000E54330E009754B20755C80020BB830E11D
:100B900009754B11755C44020BB830E209754B09BD
:100BA000755C24020BB830E309754B10755C40028C
:100BB0000BB8754B1E755C78752800752900855338
:100BC0002185542285552375500085234DC3E52387
:100BD000955CF523E5229400F522E5219400F521AA
:100BE000400EE5292401F529E5283400F52880DAAE
:100BF000854D2385234DE523C3954B5004C3020C3B
:100C000007F54D055080F1220000000000000000B3
:100C100000000000000000000000000000000000D4
:100C200000000000000000000000000000000000C4
:100C300000000000000000000000000000000000B4
:100C400000000000000000000000000000000000A4
:100C500000000000000075B0EF740A902000F0F56D
:100C600026120DF7D278120E0C7A03120DCBC27831
:100C7000120E0C7A03120DCBD278120E0C7F293093
:100C8000B0FD20B0FDDFF8C231E526902000F07FF6
:100C9000007E00120E215008DFF9DEF7C2618002EB
:100CA000D26122120DF7C2787DD77E03752AFF75B7
:100CB0002BFF120E96DDF5DEF3D26022E52820E749
:100CC0001E20E006900EF3020CCD900EFB23232392
:100CD0005430FAE52B24025407934A120E3A22129A
:100CE0000E4A22120DF7C2787E87752BFF120E96E0
:100CF000DEF8D26022E40529B529020528052BB5C6
:100D00002B02052A752F0020381820391B203A1E87
:100D1000203B21203C24203D27203E2A203F2A0240
:100D20000D4C120C56020D4C120CE3020D4C120C21
:100D3000A3020D4C120D6A020D4C120CBC020D4C9C
:100D4000120D5D020D4C020D4C120EA874FF1529F8
:100D5000B529021528152BB52B02152A22120E21B2
:100D60005005C261020D69D26122E528B52A08E565
:100D700029B52B03020DC1D278C3E529952BFDE5DA
:100D800028952AFE30E70CC278EDF42401FDEEF43C
:100D90003400FEED60010EC2B5750804750D11E555
:100DA000292D20E009750E0E750FE3020DB4750EA6
:100DB0000E750FEB85282A85292B120E6EDDD8DEE5
:100DC000D6D26022DB0122000080F97B8A120DC49A
:100DD000DAF92220E704D2B58004C2B5000030E081
:100DE0000720780B120E1322307804120E132212F1
:100DF0000E0F22E493A322C233E526902000F07A5E
:100E000003120DCBD233E526F0C26022207804C253
:100E1000B48004D2B40000C2B17B05120DC4D2B1BB
:100E20002230B0FD7A10120DCB7B51120DC47B2401
:100E300020B005DBFBD38001C322F590D232E5263A
:100E4000902000F0C232E526F022307809900EFBA7
:100E500075F000020E5C900EF375F00AE52B24028B
:100E600054079345F0120E3A7A11120DCB227400FA
:100E7000120E3A7480120E3A120E0C850E83850FF4
:100E800082AF08120DF3FB120DC4120DF3120DD335
:100E9000DFF1120E4A22C278750814750D10750E16
:100EA0000E750FBB120E6E22D230E526902000F098
:100EB0007A0A120DCBC230E526F022130171001E12
:100EC00001630010012C0010011E0017011700170C
:100ED0000117001E0110001E01100055011E0063C5
:100EE0000110007781708009801E01A08146800971
:100EF000801E0100C0C0404080800080800000C093
:100F0000C04040752B017400120E3A7480120E3AE4
:100F1000D278120E0C7F24900F57120F477F037E5A
:100F20006C7B12000000000000120DC4120E0C7B3E
:100F300012DEF0DFF07F13900F9F120F47120E4A60
:100F40001078CF752B0022120DF3FB120DC4120D79
:100F5000F3120DD3DFF1224E011100320039804926
:100F6000803D8031802B80278020801F801D801C49
:100F7000801A8019801880168016801580158015BB
:100F800080148014801280128012801180118011D0
:100F9000800F800F800F800F8014801780148017BF
:100FA000000F000F0013001300160019001A001D97
:100FB000001F0024002A002F00350040005B01477D
:100FC0000032001E011208722212084D22120A730A
:100FD00022120178221205622212062A2212045FCE
:100FE000221206B022120B80221209092212096570
:100FF0002212060A2212081C2212077222026623FB
:00000001FF

